:020000040800F2
:100000000028002009120008990D00089F0D000823
:10001000A50D0008AB0D0008B10D000800000000A0
:10002000000000000000000000000000B70D000804
:10003000C30D000800000000CF0D0008DB0D000814
:100040005112000851120008511200085112000804
:1000500051120008511200085112000851120008F4
:1000600051120008511200085112000851120008E4
:1000700051120008511200085112000851120008D4
:1000800051120008511200085112000851120008C4
:1000900051120008511200085112000851120008B4
:1000A00051120008511200085112000851120008A4
:1000B000E90D00085112000800000000511200086C
:1000C000511200080000000000000000511200085A
:1000D000000000005112000851120008000000004A
:1000E00051120008511200085112000800000000CF
:1000F0000000000000000000000000000000000000
:0C01000000000000000000005FF808F1A3
:10010C0010B5054C237833B9044B13B10448AFF345
:10011C0000800123237010BD20000020000000008F
:10012C009828000808B5034B1BB103490348AFF3EB
:10013C00008008BD00000000240000209828000862
:10014C0080B483B000AF00237B6021E0154A7B684C
:10015C00012142F82310144A7B68012142F8231034
:10016C00124A7B68012142F82310114A7B68012155
:10017C0042F823100F4A7B684FF4FA7142F82310AF
:10018C000D4A7B68002142F823107B6801337B60A9
:10019C007B68022BDADD00BF00BF0C37BD4680BC8C
:1001AC00704700BF80000020B4000020D000002069
:1001BC0074000020C00000208C00002080B483B0AC
:1001CC0000AF7860044A7B68012142F8231000BF1D
:1001DC000C37BD4680BC70478C00002080B483B0C7
:1001EC0000AF7860094A7B6852F82330012B06D1A6
:1001FC00064A7B68002142F82310012300E000230B
:10020C0018460C37BD4680BC704700BF8C000020E0
:10021C0080B582B000AF00237B6071E03C4A7B6804
:10022C0052F823203B497B6841F823203A4A7B68EB
:10023C0052F8232036497B6841F82320374A7B68E3
:10024C0052F8232036497B6831F813301946104692
:10025C0001F0E4FA034619462F4A7B6842F8231052
:10026C002B4A7B6852F823202A497B6851F82330AB
:10027C009A4242D1264A7B6852F8232026497B6851
:10028C0051F823309A4238D1264A7B6852F8232001
:10029C0021497B6851F823309A4211D01E4A7B6861
:1002AC0052F823201F497B6841F823201A4A7B68A7
:1002BC0052F82330002B20D17868FFF77FFF1CE029
:1002CC00194A7B6852F823305A1E17497B6841F84B
:1002DC002320154A7B6852F82330002B0DD1124A8B
:1002EC007B68C82142F823100B4A7B6852F82330F4
:1002FC00002B02D17868FFF761FF7B6801337B60CC
:10030C007B68022B8ADD00BF00BF0837BD4680BD6D
:10031C00B400002080000020D00000200800002045
:10032C000000002074000020C000002080B500AF49
:10033C00854B1B68012B13D1844B1B680133834AFB
:10034C0013600F2000F06EFD804B1B68032B02DD49
:10035C007E4B00221A607D4B1B68184600F0ECFAAD
:10036C007B4B1B68013B082B00F2E38001A252F887
:10037C0023F000BFA5030008090400085504000879
:10038C00A1040008F10400083F0500083F0500081F
:10039C003F050008C70300086E4B03221A606E4B22
:1003AC0002221A606B4B1A686B4B1B6813446B4A26
:1003BC001360674B09221A60C4E0654B1B68184632
:1003CC0000F0D6FD624B02221A60624B1B6864225D
:1003DC0002FB03F3184600F011FD012000F022FD92
:1003EC005F4B01221A600020FFF7F8FE0346012B39
:1003FC0040F0A180564B0A221A609CE0574B1B68B8
:10040C00544A12681146184600F010FB504B1B68FA
:10041C00184600F0ADFD534B1B68012B0AD14C4B19
:10042C0003221A604D4B1B68642202FB03F318462F
:10043C0000F0E4FC0020FFF7D1FE0346012B7CD139
:10044C00434B0A221A6078E0444B1B68424A1268FC
:10045C001146184600F0EAFA3D4B1B68184600F0AE
:10046C0087FD404B1B68012B0AD1394B04221A60C3
:10047C00384B1B68642202FB03F3184600F0BEFCE9
:10048C000020FFF7ABFE0346012B58D1304B0A225C
:10049C001A6054E02F4B18682E4B1A682E4B1B68B1
:1004AC001344194600F0C2FA294B1B68184600F099
:1004BC005FFD2C4B1B68012B0AD1254B05221A60C2
:1004CC00254B1B68642202FB03F3184600F096FCD4
:1004DC000020FFF783FE0346012B32D11C4B0A226E
:1004EC001A602EE01C4B18681A4B1A681A4B1B68C2
:1004FC001344194600F09AFA154B1B68184600F085
:10050C0037FD184B1B68012B0AD1114B02221A60C4
:10051C00104B1B68642202FB03F3184600F06EFCC0
:10052C000020FFF75BFE0346012B02D1084B0A2289
:10053C001A6000BF06E000BF04E000BF02E000BF8D
:10054C0000E000BF00BF80BD48000020F400002088
:10055C003C000020EC000020E8000020F00000200F
:10056C00500000204000002080B483B000AF7860C1
:10057C0039607B68204A82FB03129210DB17D31A76
:10058C001E4A136079681C4B83FB01239A10CB170E
:10059C00D21A13469B0013445B00CA1A184B1A60FC
:1005AC003B68154A82FB03129210DB17D31A154ACB
:1005BC0013603968104B83FB01239A10CB17D21AA6
:1005CC0013469B0013445B00CA1A0F4B1A600B4B6B
:1005DC001B680E4A13600A4B1B680C4A5360094B8C
:1005EC001B680A4A9360084B1B68084AD36000BF1B
:1005FC000C37BD4680BC704767666666E00000201D
:10060C00CC000020DC00002070000020A4000020A2
:10061C0080B582B000AF7860C54A7B6852F8233051
:10062C00092B00F27F8101A252F823F06106000829
:10063C00A9060008F1060008390700088107000820
:10064C00C90700081108000859080008A10800088B
:10065C00E908000800220221B64801F0F6F8002251
:10066C000421B44801F0F1F800220821B14801F04E
:10067C00ECF800221021AF4801F0E7F8002220210D
:10068C00AC4801F0E2F800224021AA4801F0DDF864
:10069C0001228021A74801F0D8F844E1012202216F
:1006AC00A44801F0D2F800220421A24801F0CDF8B0
:1006BC00002208219F4801F0C8F8012210219D4812
:1006CC0001F0C3F8012220219A4801F0BEF8012262
:1006DC004021984801F0B9F801228021954801F099
:1006EC00B4F820E100220221924801F0AEF8002279
:1006FC000421904801F0A9F8012208218D4801F04D
:10070C00A4F8002210218B4801F09FF80022202130
:10071C00884801F09AF801224021864801F095F8AA
:10072C0000228021834801F090F8FCE00022022195
:10073C00804801F08AF8002204217E4801F085F8F7
:10074C00002208217B4801F080F800221021794812
:10075C0001F07BF801222021764801F076F8012285
:10076C004021744801F071F800228021714801F099
:10077C006CF8D8E0012202216E4801F066F80022E4
:10078C0004216C4801F061F800220821694801F04D
:10079C005CF801221021674801F057F80122202152
:1007AC00644801F052F800224021624801F04DF8F3
:1007BC00002280215F4801F048F8B4E000220221B9
:1007CC005C4801F042F8012204215A4801F03DF83E
:1007DC0000220821574801F038F800221021554812
:1007EC0001F033F801222021524801F02EF80022AA
:1007FC004021504801F029F8002280214D4801F099
:10080C0024F890E0002202214A4801F01EF801224F
:10081C000421484801F019F800220821454801F04C
:10082C0014F800221021434801F00FF80022202177
:10083C00404801F00AF8002240213E4801F005F83A
:10084C00002280213B4801F000F86CE000220221DC
:10085C00384800F0FAFF00220421364800F0F5FF7A
:10086C0000220821334800F0F0FF0122102131480A
:10087C0000F0EBFF012220212E4800F0E6FF0122C0
:10088C0040212C4800F0E1FF01228021294800F092
:10089C00DCFF48E000220221264800F0D6FF0022AF
:1008AC000421244800F0D1FF00220821214800F047
:1008BC00CCFF002210211F4800F0C7FF002220218E
:1008CC001C4800F0C2FF002240211A4800F0BDFF76
:1008DC0000228021174800F0B8FF24E000220221FA
:1008EC00144800F0B2FF00220421124800F0ADFFC2
:1008FC00002208210F4800F0A8FF002210210D480B
:10090C0000F0A3FF012220210A4800F09EFF0022E4
:10091C004021084800F099FF00228021054800F092
:10092C0094FF00E000BF00BF0837BD4680BD00BF8C
:10093C00A40000200008014080B582B000AF7860B0
:10094C007B68032B6AD801A252F823F069090008CE
:10095C0099090008C9090008F909000800220121B9
:10096C00314800F072FF012202212F4800F06DFF88
:10097C00012204212C4800F068FF012208212A489A
:10098C0000F063FF7868FFF743FE48E00122012185
:10099C00254800F05AFF00220221234800F055FFA1
:1009AC0001220421204800F050FF012208211E489A
:1009BC0000F04BFF7868FFF72BFE30E0012201219D
:1009CC00194800F042FF01220221174800F03DFFB8
:1009DC0000220421144800F038FF0122082112489B
:1009EC0000F033FF7868FFF713FE18E001220121B5
:1009FC000D4800F02AFF012202210B4800F025FFD0
:100A0C0001220421084800F020FF0022082106489A
:100A1C0000F01BFF7868FFF7FBFD00E000BF00BF94
:100A2C000837BD4680BD00BF000C014080B582B0C8
:100A3C0000AF78603960154B1B68012B22D1144B29
:100A4C001B68013B124A1360124B1B68013B114A95
:100A5C0013605A2000F0FAF90D4B1B68002B02DCD6
:100A6C000B4A7B6813600B4B1B68002B02DC094A9A
:100A7C003B681360064B1B68064A12681146184601
:100A8C00FFF772FD00BF0837BD4680BD5000002047
:100A9C00F8000020E400002080B500AF00F0D4FB8B
:100AAC0000F014F800F09AF800F04CF8054801F04A
:100ABC0029FBFFF745FB044B01221A60FFF736FCBC
:100ACC00FCE700BFFC0000203C00002080B590B08B
:100ADC0000AF07F1180328220021184601F0CEFEC2
:100AEC003B1D00221A605A609A60DA601A61022378
:100AFC00BB610123BB621023FB6200237B6307F104
:100B0C001803184600F0D2FE0346002B01D000F06B
:100B1C00E1F80F237B600023BB600023FB60002304
:100B2C003B6100237B613B1D0021184601F03EF91F
:100B3C000346002B01D000F0CDF800BF4037BD4676
:100B4C0080BD000080B586B000AF07F1080300221D
:100B5C001A605A609A60DA603B4600221A605A604A
:100B6C001D4B4FF080421A601B4B41F63F725A608E
:100B7C00194B00229A60184B0922DA60164B00229E
:100B8C001A61154B00229A61134801F06BFA034667
:100B9C00002B01D000F09EF84FF48053BB6007F19E
:100BAC00080319460C4801F001FC0346002B01D048
:100BBC0000F090F800233B6000237B603B46194615
:100BCC00054801F0CDFD0346002B01D000F082F862
:100BDC0000BF1837BD4680BDFC00002080B586B034
:100BEC0000AF07F1080300221A605A609A60DA60BD
:100BFC002E4B9B692D4A43F0040393612B4B9B694D
:100C0C0003F004037B607B68284B9B69274A43F005
:100C1C0008039361254B9B6903F008033B603B6819
:100C2C00002243F6FE71224800F00FFE00220F2135
:100C3C00204800F00AFE43F6FE73BB600123FB6004
:100C4C0000233B6102237B6107F108031946184816
:100C5C0000F06AFC0F23BB600123FB6000233B61A7
:100C6C0002237B6107F108031946124800F05CFC73
:100C7C004FF40063BB60104BFB6000233B6107F13A
:100C8C00080319460B4800F04FFC4FF4E073BB60AF
:100C9C000023FB6001233B6107F10803194605485B
:100CAC0000F042FC00BF1837BD4680BD001002406A
:100CBC0000080140000C01400000111080B582B00A
:100CCC0000AF786000F0D6F8FFF7A2FA00BF083743
:100CDC00BD4680BD80B400AF72B600BFFEE7000019
:100CEC0080B485B000AF154B9B69144A43F00103E7
:100CFC009361124B9B6903F00103BB60BB680F4B04
:100D0C00DB690E4A43F08053D3610C4BDB6903F073
:100D1C0080537B607B680A4B5B68FB60FB6823F04D
:100D2C00E063FB60FB6843F08063FB60044AFB6894
:100D3C00536000BF1437BD4680BC704700100240A2
:100D4C000000014080B584B000AF78607B681B6800
:100D5C00B3F1804F13D10C4BDB690B4A43F0010309
:100D6C00D361094BDB6903F00103FB60FB680022D4
:100D7C0000211C2000F0A1FB1C2000F0BAFB00BFDE
:100D8C001037BD4680BD00BF0010024080B400AFDC
:100D9C00FEE780B400AFFEE780B400AFFEE780B49E
:100DAC0000AFFEE780B400AFFEE780B400AF00BF39
:100DBC00BD4680BC704780B400AF00BFBD4680BC50
:100DCC00704780B400AF00BFBD4680BC704780B593
:100DDC0000AF00F07FFA00BF80BD000080B500AF0F
:100DEC00024801F0DBF900BF80BD00BFFC00002011
:100DFC0080B400AF00BFBD4680BC704780B483B0E8
:100E0C0000AF7860054A7B681360054B00221A60BE
:100E1C0000BF0C37BD4680BC704700BF44000020AB
:100E2C004000002080B483B000AF7860054A7B6836
:100E3C001360054B00221A6000BF0C37BD4680BC06
:100E4C00704700BF4C0000204800002080B483B0E5
:100E5C0000AF7860054A7B681360054B00221A606E
:100E6C0000BF0C37BD4680BC704700BF540000204B
:100E7C005000002080B400AF314B1B68002B0BDD01
:100E8C002F4B1B68013B2E4A13602D4B1B68002B0C
:100E9C0002DC2C4B01221A602B4B1B68002B0BDD48
:100EAC00294B1B68013B284A1360274B1B68002BFE
:100EBC0002DC264B01221A60254B1B68002B0BDD34
:100ECC00234B1B68013B224A1360214B1B68002BF0
:100EDC0002DC204B01221A601F4B1B68002B0BDD20
:100EEC001D4B1B68013B1C4A13601B4B1B68002BE2
:100EFC0002DC1A4B01221A60194B1B68002B0BDD0C
:100F0C00174B1B68013B164A1360154B1B68002BD3
:100F1C0002DC144B01221A60134B1B68002B0BDDF7
:100F2C00114B1B68013B104A13600F4B1B68002BC5
:100F3C0002DC0E4B01221A6000BFBD4680BC70471C
:100F4C0044000020400000204C00002048000020FD
:100F5C0054000020500000205C00002058000020AD
:100F6C00680000206C00002060000020640000205D
:100F7C0080B582B000AF78607B68013B072B00F234
:100F8C00358101A252F823F0B50F0008FF0F0008BD
:100F9C004910000893100008DD1000082711000804
:100FAC006D110008B311000800224FF480719248B3
:100FBC0000F04BFC00224FF480618F4800F045FCA0
:100FCC0000224FF480518C4800F03FFC00224FF47B
:100FDC000071894800F039FC00224FF4006186480A
:100FEC0000F033FC00224FF40051834800F02DFC3C
:100FFC00FDE001224FF480717F4800F026FC0022B6
:10100C004FF480617C4800F020FC00224FF48051AA
:10101C00794800F01AFC00224FF40071764800F079
:10102C0014FC01224FF40061734800F00EFC002206
:10103C004FF40051704800F008FCD8E001224FF446
:10104C0080716D4800F001FC00224FF480616A4809
:10105C0000F0FBFB00224FF48051674800F0F5FBD9
:10106C0000224FF40071644800F0EFFB00224FF4B3
:10107C000061614800F0E9FB01224FF400515E4829
:10108C0000F0E3FBB3E000224FF480715A4800F00B
:10109C00DCFB01224FF48061574800F0D6FB0022A4
:1010AC004FF48051544800F0D0FB01224FF40071F2
:1010BC00514800F0CAFB00224FF400614E4800F08A
:1010CC00C4FB00224FF400514B4800F0BEFB8EE0F5
:1010DC0000224FF48071484800F0B7FB00224FF417
:1010EC008061454800F0B1FB01224FF48051424829
:1010FC0000F0ABFB01224FF400713F4800F0A5FB60
:10110C0000224FF400613C4800F09FFB00224FF49A
:10111C000051394800F099FB69E04FF48071364872
:10112C0000F0ABFB00224FF48061334800F08DFBE4
:10113C0000224FF48051304800F087FB4FF40071CF
:10114C002D4800F09AFB00224FF400612A4800F071
:10115C007CFB00224FF40051274800F076FB46E060
:10116C0000224FF48071244800F06FFB4FF4806133
:10117C00214800F082FB00224FF480511E4800F001
:10118C0064FB00224FF400711B4800F05EFB4FF42F
:10119C000061194800F071FB00224FF40051164811
:1011AC0000F053FB23E000224FF48071124800F052
:1011BC004CFB00224FF480610F4800F046FB4FF4CB
:1011CC0080510D4800F059FB00224FF400710A4881
:1011DC0000F03BFB00224FF40061074800F035FBA8
:1011EC004FF40051044800F048FB00E000BF00BF82
:1011FC000837BD4680BD00BF00080140FFF7F8FD71
:10120C000B480C490C4A002302E0D458C450043358
:10121C00C4188C42F9D3094A094C002301E013602D
:10122C000432A242FBD301F005FBFFF735FC7047FB
:10123C000000002020000020DC28000820000020F6
:10124C0048010020FEE7000080B500AF084B1B688A
:10125C00074A43F010031360032000F023F90F201A
:10126C0000F008F8FFF73CFD0023184680BD00BFD6
:10127C000020024080B582B000AF7860124B1A6833
:10128C00124B1B7819464FF47A73B3FBF1F3B2FB94
:10129C00F3F3184600F03BF90346002B01D0012371
:1012AC000EE07B680F2B0AD8002279684FF0FF30D4
:1012BC0000F003F9064A7B681360002300E0012369
:1012CC0018460837BD4680BD140000201C000020C5
:1012DC001800002080B400AF054B1B781A46054B54
:1012EC001B681344034A136000BFBD4680BC7047A3
:1012FC001C0000204401002080B400AF024B1B688E
:10130C001846BD4680BC70474401002080B485B0AF
:10131C0000AF78607B6803F00703FB600C4BDB6865
:10132C00BB60BA684FF6FF031340BB60FB681A0240
:10133C00BB68134343F0BF6343F40033BB60044A00
:10134C00BB68D36000BF1437BD4680BC704700BF7C
:10135C0000ED00E080B400AF044BDB681B0A03F027
:10136C0007031846BD4680BC704700BF00ED00E087
:10137C0080B483B000AF0346FB7197F90730002BA4
:10138C000BDBFB7903F01F02064997F907305B0969
:10139C00012000FA02F241F8232000BF0C37BD46B1
:1013AC0080BC704700E100E080B483B000AF03461E
:1013BC003960FB7197F90730002B0ADB3B68DAB216
:1013CC000C4997F907301201D2B20B4483F8002371
:1013DC000AE03B68DAB20849FB7903F00F03043BDF
:1013EC001201D2B20B441A7600BF0C37BD4680BC3A
:1013FC00704700BF00E100E000ED00E080B489B070
:10140C0000AFF860B9607A60FB6803F00703FB611A
:10141C00FB69C3F10703042B28BF0423BB61FB69E1
:10142C000433062B02D9FB69033B00E000237B61EC
:10143C004FF0FF32BB6902FA03F3DA43BB681A4080
:10144C007B699A404FF0FF317B6901FA03F3D94372
:10145C007B680B40134318462437BD4680BC70474D
:10146C0080B582B000AF78607B68013BB3F1807FC0
:10147C0001D301230FE00A4A7B68013B53600F2123
:10148C004FF0FF30FFF790FF054B00229A60044BA2
:10149C0007221A60002318460837BD4680BD00BFDE
:1014AC0010E000E080B582B000AF78607868FFF79C
:1014BC002DFF00BF0837BD4680BD80B586B000AF9C
:1014CC000346B9607A60FB7300237B61FFF742FF30
:1014DC0078617A68B9687869FFF790FF024697F9E6
:1014EC000F3011461846FFF75FFF00BF1837BD4697
:1014FC0080BD80B582B000AF0346FB7197F9073011
:10150C001846FFF735FF00BF0837BD4680BD80B5D4
:10151C0082B000AF78607868FFF7A2FF03461846E8
:10152C000837BD4680BD000080B48BB000AF78603A
:10153C00396000237B6200233B6248E101227B6A15
:10154C0002FA03F3FB613B681B68FA691340BB6149
:10155C00BA69FB699A4240F037813B685B68A34AE1
:10156C0093425ED0A14A934275D8A14A934258D077
:10157C009F4A93426FD89F4A934252D09D4A9342BE
:10158C0069D89D4A93424CD09B4A934263D89B4A5C
:10159C00934246D0994A93425DD8122B2AD8122BEB
:1015AC0059D801A252F823F02F160008091600088A
:1015BC001B1600085D160008631600086316000869
:1015CC00631600086316000863160008631600080B
:1015DC0063160008631600086316000863160008FB
:1015EC00631600086316000863160008111600083D
:1015FC0025160008824A934213D02CE03B68DB6826
:10160C003B6229E03B68DB6804333B6224E03B68C7
:10161C00DB6808333B621FE03B68DB680C333B62E2
:10162C001AE03B689B68002B02D104233B6213E059
:10163C003B689B68012B05D108233B627B68FA69E8
:10164C001A6109E008233B627B68FA695A6103E07E
:10165C0000233B6200E000BFBB69FF2B01D87B6815
:10166C0001E07B6804337B61BB69FF2B02D87B6A8A
:10167C009B0002E07B6A083B9B003B617B691A681C
:10168C000F213B6901FA03F3DB431A40396A3B69CA
:10169C0001FA03F31A437B691A603B685B6803F039
:1016AC008053002B00F09080564B9B69554A43F0B9
:1016BC0001039361534B9B6903F00103BB60BB684F
:1016CC00514A7B6A9B08023352F82330FB607B6AD9
:1016DC0003F003039B000F2202FA03F3DB43FA68C7
:1016EC001340FB607B68494A93420DD07B68484AA3
:1016FC00934207D07B68474A934201D1022304E00E
:10170C00032302E0012300E000237A6A02F00302C3
:10171C0092009340FA681343FB603B497B6A9B0839
:10172C000233FA6841F823203B685B6803F48013AA
:10173C00002B06D0384B9A683749BB6913438B6032
:10174C0006E0354B9A68BB69DB43334913408B6029
:10175C003B685B6803F40013002B06D02E4BDA6851
:10176C002D49BB691343CB6006E02B4BDA68BB6990
:10177C00DB4329491340CB603B685B6803F40033BF
:10178C00002B06D0244B5A682349BB6913434B608A
:10179C0006E0214B5A68BB69DB431F4913404B6081
:1017AC003B685B6803F48033002B06D01A4B1A6835
:1017BC001949BB6913430B6006E0174B1A68BB69E8
:1017CC00DB43154913400B607B6A01337B623B683A
:1017DC001A687B6A22FA03F3002B7FF4AFAE00BFCA
:1017EC0000BF2C37BD4680BC704700BF00003210D4
:1017FC000000311000002210000021100000121017
:10180C0000001110001002400000014000080140CF
:10181C00000C0140001001400004014080B485B070
:10182C0000AF78600B467B807B689A687B8813409E
:10183C00002B02D00123FB7301E00023FB73FB7B25
:10184C0018461437BD4680BC704780B483B000AFD7
:10185C0078600B467B8013467B707B78002B03D023
:10186C007A887B681A6103E07B881A047B681A61AA
:10187C0000BF0C37BD4680BC704780B485B000AF4C
:10188C0078600B467B807B68DB68FB607A88FB6842
:10189C0013401A04FB68D9437B880B401A437B68BE
:1018AC001A6100BF1437BD4680BC704780B586B046
:1018BC0000AF78607B68002B01D101236CE27B6860
:1018CC001B6803F00103002B00F08780924B5B68D0
:1018DC0003F00C03042B0CD08F4B5B6803F00C0350
:1018EC00082B12D18C4B5B6803F48033B3F5803F2B
:1018FC000BD1894B1B6803F40033002B6CD07B6835
:10190C005B68002B68D1012346E27B685B68B3F50A
:10191C00803F06D1804B1B687F4A43F480331360B1
:10192C002EE07B685B68002B0CD17B4B1B687A4AE2
:10193C0023F480331360784B1B68774A23F480239D
:10194C0013601DE07B685B68B3F5A02F0CD1724B64
:10195C001B68714A43F4802313606F4B1B686E4AFB
:10196C0043F4803313600BE06B4B1B686A4A23F41F
:10197C0080331360684B1B68674A23F48023136021
:10198C007B685B68002B13D0FFF7B6FC386108E06E
:10199C00FFF7B2FC02463B69D31A642B01D903232F
:1019AC00FAE15D4B1B6803F40033002BF0D014E01C
:1019BC00FFF7A2FC386108E0FFF79EFC02463B698A
:1019CC00D31A642B01D90323E6E1534B1B6803F4B0
:1019DC000033002BF0D100E000BF7B681B6803F0E4
:1019EC000203002B63D04C4B5B6803F00C03002B01
:1019FC000BD0494B5B6803F00C03082B1CD1464BF6
:101A0C005B6803F48033002B16D1434B1B6803F047
:101A1C000203002B05D07B681B69012B01D001232D
:101A2C00BAE13D4B1B6823F0F8027B685B69DB0075
:101A3C00394913430B603AE07B681B69002B20D0BB
:101A4C00364B01221A60FFF757FC386108E0FFF7AC
:101A5C0053FC02463B69D31A022B01D903239BE1A9
:101A6C002D4B1B6803F00203002BF0D02A4B1B6894
:101A7C0023F0F8027B685B69DB00274913430B609A
:101A8C0015E0264B00221A60FFF736FC386108E09F
:101A9C00FFF732FC02463B69D31A022B01D9032310
:101AAC007AE11D4B1B6803F00203002BF0D17B681D
:101ABC001B6803F00803002B3AD07B689B69002B52
:101ACC0019D0174B01221A60FFF716FC386108E099
:101ADC00FFF712FC02463B69D31A022B01D90323F0
:101AEC005AE10D4B5B6A03F00203002BF0D001208E
:101AFC0000F09AFA1CE00A4B00221A60FFF7FCFB7C
:101B0C0038610FE0FFF7F8FB02463B69D31A022B52
:101B1C0008D9032340E100BF0010024000004242FC
:101B2C00800442429E4B5B6A03F00203002BE9D116
:101B3C007B681B6803F00403002B00F0A6800023D5
:101B4C00FB75974BDB6903F08053002B0DD1944B45
:101B5C00DB69934A43F08053D361914BDB6903F00B
:101B6C008053BB60BB680123FB758E4B1B6803F471
:101B7C008073002B18D18B4B1B688A4A43F48073FB
:101B8C001360FFF7B9FB386108E0FFF7B5FB0246BD
:101B9C003B69D31A642B01D90323FDE0814B1B68ED
:101BAC0003F48073002BF0D07B68DB68012B06D12B
:101BBC007B4B1B6A7A4A43F0010313622DE07B686E
:101BCC00DB68002B0CD1764B1B6A754A23F00103A2
:101BDC001362734B1B6A724A23F0040313621CE0FA
:101BEC007B68DB68052B0CD16D4B1B6A6C4A43F090
:101BFC00040313626A4B1B6A694A43F001031362C4
:101C0C000BE0674B1B6A664A23F001031362644BBB
:101C1C001B6A634A23F0040313627B68DB68002BA6
:101C2C0015D0FFF769FB38610AE0FFF765FB024648
:101C3C003B69D31A41F28832934201D90323ABE0BA
:101C4C00574B1B6A03F00203002BEED014E0FFF796
:101C5C0053FB38610AE0FFF74FFB02463B69D31A8E
:101C6C0041F28832934201D9032395E04C4B1B6A15
:101C7C0003F00203002BEED1FB7D012B05D1484B69
:101C8C00DB69474A23F08053D3617B68DB69002B07
:101C9C0000F08180424B5B6803F00C03082B61D091
:101CAC007B68DB69022B46D13F4B00221A60FFF7A1
:101CBC0023FB386108E0FFF71FFB02463B69D31A90
:101CCC00022B01D9032367E0354B1B6803F000732B
:101CDC00002BF0D17B681B6AB3F5803F08D1304BE9
:101CEC005B6823F400327B689B682D4913434B607F
:101CFC002B4B5B6823F474127B68196A7B685B6AF4
:101D0C000B43274913434B60274B01221A60FFF703
:101D1C00F3FA386108E0FFF7EFFA02463B69D31A91
:101D2C00022B01D9032337E01D4B1B6803F0007312
:101D3C00002BF0D02FE01C4B00221A60FFF7DCFACE
:101D4C00386108E0FFF7D8FA02463B69D31A022B38
:101D5C0001D9032320E0124B1B6803F00073002B06
:101D6C00F0D118E07B68DB69012B01D1012313E072
:101D7C000B4B5B68FB60FB6803F480327B681B6A6F
:101D8C009A4206D1FB6803F470127B685B6A9A4234
:101D9C0001D0012300E0002318461837BD4680BD52
:101DAC0000100240007000406000424280B584B0D8
:101DBC0000AF786039607B68002B01D10123D0E043
:101DCC006A4B1B6803F007033A689A4210D9674BB9
:101DDC001B6823F0070265493B6813430B60634B98
:101DEC001B6803F007033A689A4201D00123B8E05C
:101DFC007B681B6803F00203002B20D07B681B68F8
:101E0C0003F00403002B05D0594B5B68584A43F48C
:101E1C00E06353607B681B6803F00803002B05D05C
:101E2C00534B5B68524A43F460535360504B5B68AE
:101E3C0023F0F0027B689B684D4913434B607B6831
:101E4C001B6803F00103002B40D07B685B68012BFF
:101E5C0007D1474B1B6803F40033002B15D101232A
:101E6C007FE07B685B68022B07D1414B1B6803F05A
:101E7C000073002B09D1012373E03D4B1B6803F069
:101E8C000203002B01D101236BE0394B5B6823F07B
:101E9C0003027B685B68364913434B60FFF72CFAEF
:101EAC00F8600AE0FFF728FA0246FB68D31A41F201
:101EBC008832934201D9032353E02D4B5B6803F026
:101ECC000C027B685B689B009A42EBD1274B1B682A
:101EDC0003F007033A689A4210D2244B1B6823F094
:101EEC00070222493B6813430B60204B1B6803F02D
:101EFC0007033A689A4201D0012332E07B681B68E1
:101F0C0003F00403002B08D0194B5B6823F4E06248
:101F1C007B68DB68164913434B607B681B6803F0D6
:101F2C000803002B09D0124B5B6823F460527B68CA
:101F3C001B69DB000E4913434B6000F021F802468D
:101F4C000B4B5B681B0903F00F030A49CB5C22FAAD
:101F5C0003F3094A1360094B1B681846FFF78AF90B
:101F6C00002318461037BD4680BD00BF002002403C
:101F7C0000100240B02800081400002018000020B7
:101F8C0080B487B000AF0023FB600023BB6000234C
:101F9C007B6100237B6000233B611E4B5B68FB6015
:101FAC00FB6803F00C03042B02D0082B03D027E0B2
:101FBC00194B3B6127E0FB689B0C03F00F03174A9E
:101FCC00D35C7B60FB6803F48033002B10D0114B87
:101FDC005B685B0C03F00103114AD35CBB607B684C
:101FEC000D4A02FB03F2BB68B2FBF3F37B6104E026
:101FFC007B680C4A02FB03F37B617B693B6102E06B
:10200C00054B3B6100BF3B6918461C37BD4680BC85
:10201C00704700BF0010024000127A00C028000870
:10202C00D028000800093D0080B485B000AF78606E
:10203C000A4B1B680A4AA2FB03235B0A7A6802FB61
:10204C0003F3FB6000BFFB685A1EFA60002BF9D14A
:10205C0000BF00BF1437BD4680BC70471400002081
:10206C00D34D621080B582B000AF78607B68002BD6
:10207C0001D1012341E07B6893F83D30DBB2002BAA
:10208C0006D17B68002283F83C207868FEF75AFE64
:10209C007B68022283F83D207B681A687B680433D6
:1020AC001946104600F06EFA7B68012283F8462030
:1020BC007B68012283F83E207B68012283F83F2055
:1020CC007B68012283F840207B68012283F8412041
:1020DC007B68012283F842207B68012283F843202D
:1020EC007B68012283F844207B68012283F8452019
:1020FC007B68012283F83D20002318460837BD4633
:10210C0080BD000080B485B000AF78607B6893F828
:10211C003D30DBB2012B01D0012335E07B6802227C
:10212C0083F83D207B681B68DA687B681B6842F08B
:10213C000102DA607B681B68164A934209D07B68FF
:10214C001B68B3F1804F04D07B681B68124A934222
:10215C0011D17B681B689B6803F00703FB60FB686D
:10216C00062B10D07B681B681A687B681B6842F0D2
:10217C0001021A6007E07B681B681A687B681B68A1
:10218C0042F001021A60002318461437BD4680BC89
:10219C00704700BF002C01400004004080B582B0A5
:1021AC0000AF78607B681B681B6903F00203022B8D
:1021BC0022D17B681B68DB6803F00203022B1BD166
:1021CC007B681B686FF002021A617B6801221A7728
:1021DC007B681B689B6903F00303002B03D07868B2
:1021EC0000F0B4F905E0786800F0A7F9786800F021
:1021FC00B6F97B6800221A777B681B681B6903F0B1
:10220C000403042B22D17B681B68DB6803F00403F6
:10221C00042B1BD17B681B686FF004021A617B686E
:10222C0002221A777B681B689B6903F44073002BAE
:10223C0003D0786800F08AF905E0786800F07DF941
:10224C00786800F08CF97B6800221A777B681B6831
:10225C001B6903F00803082B22D17B681B68DB6821
:10226C0003F00803082B1BD17B681B686FF0080276
:10227C001A617B6804221A777B681B68DB6903F0A0
:10228C000303002B03D0786800F060F905E0786850
:10229C0000F053F9786800F062F97B6800221A7735
:1022AC007B681B681B6903F01003102B22D17B6821
:1022BC001B68DB6803F01003102B1BD17B681B68B9
:1022CC006FF010021A617B6808221A777B681B6812
:1022DC00DB6903F44073002B03D0786800F036F907
:1022EC0005E0786800F029F9786800F038F97B6827
:1022FC0000221A777B681B681B6903F00103012B12
:10230C000ED17B681B68DB6803F00103012B07D13E
:10231C007B681B686FF001021A617868FEF7CEFCCF
:10232C007B681B681B6903F08003802B0ED17B68D4
:10233C001B68DB6803F08003802B07D17B681B686C
:10234C006FF080021A61786800F06BFA7B681B688A
:10235C001B6903F04003402B0ED17B681B68DB68C4
:10236C0003F04003402B07D17B681B686FF04002E1
:10237C001A61786800F0FCF87B681B681B6903F035
:10238C002003202B0ED17B681B68DB6803F0200335
:10239C00202B07D17B681B686FF020021A617868CC
:1023AC0000F036FA00BF0837BD4680BD80B584B05A
:1023BC0000AF786039600023FB737B6893F83C3086
:1023CC00012B01D10223B4E07B68012283F83C206D
:1023DC007B68022283F83D207B681B689B68BB608E
:1023EC00BB6823F07703BB60BB6823F47F43BB60FF
:1023FC007B681B68BA689A603B681B68B3F5005F22
:10240C003ED0B3F5005F00F28780B3F5805F00F03B
:10241C008680B3F5805F7FD8702B1AD0702B7BD859
:10242C00602B50D0602B77D8502B3CD0502B73D8CE
:10243C00402B58D0402B6FD8302B64D0302B6BD81E
:10244C00202B60D0202B67D8002B5CD0102B5AD0BF
:10245C0062E07B6818683B6899683B685A683B681F
:10246C00DB6800F05EF97B681B689B68BB60BB682F
:10247C0043F07703BB607B681B68BA689A604FE0D7
:10248C007B6818683B6899683B685A683B68DB68EE
:10249C0000F047F97B681B689A687B681B6842F4FC
:1024AC0080429A603CE07B6818683B6859683B68DE
:1024BC00DB681A4600F0BEF87B681B685021184692
:1024CC0000F015F92CE07B6818683B6859683B688C
:1024DC00DB681A4600F0DCF87B681B686021184644
:1024EC0000F005F91CE07B6818683B6859683B688C
:1024FC00DB681A4600F09EF87B681B684021184682
:10250C0000F0F5F80CE07B681A683B681B6819460C
:10251C00104600F0ECF803E00123FB7300E000BF71
:10252C007B68012283F83D207B68002283F83C20E5
:10253C00FB7B18461037BD4680BD80B483B000AF1E
:10254C00786000BF0C37BD4680BC704780B483B048
:10255C0000AF786000BF0C37BD4680BC704780B4BC
:10256C0083B000AF786000BF0C37BD4680BC7047AD
:10257C0080B483B000AF786000BF0C37BD4680BC20
:10258C007047000080B485B000AF786039607B681C
:10259C001B68FB607B68254A934207D07B68B3F1CC
:1025AC00804F03D07B68224A934208D1FB6823F00A
:1025BC007003FB603B685B68FA681343FB607B68E5
:1025CC001A4A934207D07B68B3F1804F03D07B68E3
:1025DC00174A934208D1FB6823F44073FB603B68B5
:1025EC00DB68FA681343FB60FB6823F080023B68EE
:1025FC005B691343FB607B68FA681A603B689A68F6
:10260C007B68DA623B681A687B689A627B68074A67
:10261C00934203D13B681A697B681A637B68012279
:10262C005A6100BF1437BD4680BC7047002C014076
:10263C000004004080B487B000AFF860B9607A60E5
:10264C00FB681B6A7B61FB681B6A23F00102FB6859
:10265C001A62FB689B693B613B6923F0F0033B61A9
:10266C007B681B013A6913433B617B6923F00A03C6
:10267C007B617A69BB6813437B61FB683A699A6139
:10268C00FB687A691A6200BF1C37BD4680BC704774
:10269C0080B487B000AFF860B9607A60FB681B6AE1
:1026AC007B61FB681B6A23F01002FB681A62FB68F3
:1026BC009B693B613B6923F470433B617B681B0363
:1026CC003A6913433B617B6923F0A0037B61BB68D0
:1026DC001B017A6913437B61FB683A699A61FB6859
:1026EC007A691A6200BF1C37BD4680BC704780B443
:1026FC0085B000AF786039607B689B68FB60FB68D5
:10270C0023F07003FB603A68FB68134343F0070344
:10271C00FB607B68FA689A6000BF1437BD4680BCCA
:10272C00704780B487B000AFF860B9607A603B60E6
:10273C00FB689B687B617B6923F47F437B613B680F
:10274C001A027B681A43BB6813437A6913437B6193
:10275C00FB687A699A6000BF1C37BD4680BC704725
:10276C0080B485B000AF786039607B6893F83C30FA
:10277C00012B01D1022341E07B68012283F83C202C
:10278C007B68022283F83D207B681B685B68FB60DA
:10279C007B681B689B68BB60FB6823F07003FB6065
:1027AC003B681B68FA681343FB607B681B68FA681C
:1027BC005A607B681B68144A934209D07B681B687B
:1027CC00B3F1804F04D07B681B68104A93420CD144
:1027DC00BB6823F08003BB603B685B68BA6813433B
:1027EC00BB607B681B68BA689A607B68012283F8BF
:1027FC003D207B68002283F83C20002318461437C8
:10280C00BD4680BC704700BF002C01400004004056
:10281C0080B483B000AF786000BF0C37BD4680BC7D
:10282C00704780B483B000AF786000BF0C37BD46F2
:10283C0080BC704770B500260C4D0D4C641BA41069
:10284C00A64209D100F022F800260A4D0A4C641B5E
:10285C00A410A64205D170BD55F8043B984701362B
:10286C00EEE755F8043B98470136F2E7D428000808
:10287C00D4280008D4280008D828000803460244AD
:10288C00934200D1704703F8011BF9E7F8B500BF7C
:10289C00F8BC08BC9E467047F8B500BFF8BC08BC35
:0428AC009E4670478D
:1028B00000000000000000000102030406070809F0
:1028C00002030405060708090A0B0C0D0E0F101071
:0428D0000102000001
:0428D40031010008C6
:0428D8000D010008E6
:1028DC004000800000010000000C0140000C014091
:1028EC00000C01400024F400100000000100000066
:0400000508001209D4
:00000001FF
