:020000040800F2
:1000000000280020350F0008A90C0008AF0C0008DC
:10001000B50C0008BB0C0008C10C00080000000073
:10002000000000000000000000000000C70C0008F5
:10003000D30C000800000000DF0C0008EB0C0008E7
:100040007D0F00087D0F00087D0F00087D0F000860
:100050007D0F00087D0F00087D0F00087D0F000850
:100060007D0F00087D0F00087D0F00087D0F000840
:100070007D0F00087D0F00087D0F00087D0F000830
:100080007D0F00087D0F00087D0F00087D0F000820
:100090007D0F00087D0F00087D0F00087D0F000810
:1000A0007D0F00087D0F00087D0F00087D0F000800
:1000B000F90C00087D0F0008000000007D0F00080B
:1000C0007D0F000800000000000000007D0F000808
:1000D000000000007D0F00087D0F000800000000F8
:1000E0007D0F00087D0F00087D0F00080000000054
:1000F0000000000000000000000000000000000000
:0C01000000000000000000005FF808F1A3
:10010C0010B5054C237833B9044B13B10448AFF345
:10011C0000800123237010BD40000020000000006F
:10012C00C425000808B5034B1BB103490348AFF3C2
:10013C00008008BD0000000044000020C425000819
:10014C0080B400AF064B1B68012B04D1044B00227A
:10015C001A60012300E000231846BD4680BC70479E
:10016C005C00002080B400AF064B01221A60064BE5
:10017C0001221A60054B01221A6000BFBD4680BCEB
:10018C00704700BF5C00002060000020640000206D
:10019C0080B500AF624B1B68624A1360624B1B68F0
:1001AC005F4A13604FF40051604801F0CDF90346EB
:1001BC001A465D4B1A605A4B1A685B4B1B689A4285
:1001CC0029D1574B1A68574B1B689A4223D1554B70
:1001DC001A68574B1B689A420ED0524B1B68544AF4
:1001EC001360534B1B68002B15D1524B4FF4FA7212
:1001FC001A60FFF7B7FF0EE04E4B1B68013B4D4AF0
:10020C0013604C4B1B68002B05D14A4B4FF4FA7210
:10021C001A60FFF7A7FF484B1B68484A1360484B0E
:10022C001B68454A13604FF48051404801F08CF92B
:10023C0003461A46424B1A603F4B1A68404B1B68E8
:10024C009A4229D13C4B1A683C4B1B689A4223D1E9
:10025C003A4B1A683B4B1B689A420ED0374B1B68C3
:10026C00384A1360374B1B68002B15D1314B4FF4B8
:10027C00FA721A60FFF776FF0EE02E4B1B68013BFB
:10028C002C4A13602B4B1B68002B05D1294B4FF4C8
:10029C00FA721A60FFF766FF2B4B1B682B4A136030
:1002AC002B4B1B68284A13604FF400611F4801F068
:1002BC004BF903461A46264B1A60234B1A68244BFB
:1002CC001B689A4229D1204B1A68204B1B689A4212
:1002DC0023D11E4B1A681F4B1B689A420ED01B4B26
:1002EC001B681C4A13601B4B1B68002B15D1114B50
:1002FC004FF4FA721A60FFF735FF0EE00D4B1B68D6
:10030C00013B0C4A13600B4B1B68002B05D1094BAE
:10031C004FF4FA721A60FFF725FF00BF80BD00BFD3
:10032C00040000200800002000000020000801400C
:10033C000C000020300000201400002018000020C9
:10034C00100000201C0000202400002028000020A9
:10035C00200000202C00002080B500AF524B1B6801
:10036C00013B042B00F29D8001A252F823F000BF48
:10037C0091030008B1030008ED0300082B040008EA
:10038C0067040008012000F017FD012000F002F9BD
:10039C00454B02221A604FF4967000F0CBFCFFF72D
:1003AC00CFFE7EE0022000F007FD012000F0F2F805
:1003BC003E4B1B68012B07D13B4B03221A60FFF706
:1003CC00BFFEC82000F0B6FCFFF7BAFE0346012BB7
:1003DC0062D1354B18221A60642000F0ABFC5BE054
:1003EC00012000F0D7F8032000F0E6FC2F4B1B682F
:1003FC00012B08D12C4B04221A60FFF7A1FE4FF4FD
:10040C00967000F097FCFFF79BFE0346012B45D13D
:10041C00254B18221A60642000F08CFC3EE0012071
:10042C0000F0B8F8042000F0C7FC204B1B68012B2F
:10043C0007D11D4B05221A60FFF782FEC82000F081
:10044C0079FCFFF77DFE0346012B29D1164B1822B0
:10045C001A60642000F06EFC22E0012000F09AF893
:10046C00052000F0A9FC114B1B68012B08D10E4B89
:10047C0002221A60FFF764FE4FF4967000F05AFCEB
:10048C00FFF75EFE0346012B0BD1074B18221A60B7
:10049C00642000F04FFC04E000BF02E000BF00E06D
:1004AC0000BF00BF80BD00BF6800002070000020AE
:1004BC0080B500AF354B1B681A2B40D01A2B5BDC78
:1004CC00182B02D0192B1DD056E0022000F062F838
:1004DC00222000F0EDF92E4B1B68012B06D12B4B83
:1004EC0002221A604FF4967000F024FCFFF728FEED
:1004FC000346012B42D1254B19221A60642000F0CF
:10050C0019FC3BE0032000F045F8222000F0D0F964
:10051C001F4B1B68012B06D11C4B02221A604FF497
:10052C00967000F007FCFFF70BFE0346012B27D15A
:10053C00164B1A221A60642000F0FCFB20E0042009
:10054C0000F028F8222000F0B3F9114B1B68012BA6
:10055C0006D10E4B02221A604FF4967000F0EAFBA3
:10056C00FFF7EEFD0346012B0CD1084B02221A605B
:10057C00642000F0DFFB05E000BF04E000BF02E0F8
:10058C0000BF00E000BF00BF80BD00BF68000020BE
:10059C007000002080B582B000AF78607B68092BBA
:1005AC0000F2808101A252F823F000BFE10500089F
:1005BC002906000871060008B906000801070008A2
:1005CC004907000891070008D9070008210800080E
:1005DC006908000801220121B44800F0CCFF012277
:1005EC000221B24800F0C7FF01220421AF4800F0FD
:1005FC00C2FF01220821AD4800F0BDFF01221021ED
:10060C00AA4800F0B8FF01222021A84800F0B3FF4F
:10061C0000224021A54800F0AEFF43E10122012158
:10062C00A24800F0A8FF00220221A04800F0A3FF7E
:10063C00002204219D4800F09EFF012208219B48C6
:10064C0000F099FF01221021984800F094FF01223C
:10065C002021964800F08FFF01224021934800F0A2
:10066C008AFF1FE100220121904800F084FF002244
:10067C0002218E4800F07FFF012204218B4800F0FC
:10068C007AFF00220821894800F075FF0022102112
:10069C00864800F070FF01222021844800F06BFF97
:1006AC0000224021814800F066FFFBE0002201217E
:1006BC007E4800F060FF002202217C4800F05BFFC6
:1006CC0000220421794800F056FF002208217748C7
:1006DC0000F051FF01221021744800F04CFF012260
:1006EC002021724800F047FF002240216F4800F0A3
:1006FC0042FFD7E0012201216C4800F03CFF0022B0
:10070C0002216A4800F037FF00220421674800F0FC
:10071C0032FF01220821654800F02DFF0122102133
:10072C00624800F028FF00222021604800F023FFDF
:10073C00002240215D4800F01EFFB3E000220121A1
:10074C005A4800F018FF01220221584800F013FF0C
:10075C0000220421554800F00EFF002208215348C6
:10076C0000F009FF01221021504800F004FF002284
:10077C0020214E4800F0FFFE002240214B4800F0A3
:10078C00FAFE8FE000220121484800F0F4FE01221D
:10079C000221464800F0EFFE00220421434800F0FD
:1007AC00EAFE00220821414800F0E5FE002210215B
:1007BC003E4800F0E0FE002220213C4800F0DBFE29
:1007CC0000224021394800F0D6FE6BE000220121C6
:1007DC00364800F0D0FE00220221344800F0CBFE57
:1007EC0000220421314800F0C6FE012208212F48C6
:1007FC0000F0C1FE012210212C4800F0BCFE0122A9
:10080C0020212A4800F0B7FE01224021274800F0A1
:10081C00B2FE47E000220121244800F0ACFE002289
:10082C000221224800F0A7FE002204211F4800F0FC
:10083C00A2FE002208211D4800F09DFE002210217E
:10084C001A4800F098FE00222021184800F093FE70
:10085C0000224021154800F08EFE23E000220121E9
:10086C00124800F088FE00220221104800F083FE9E
:10087C00002204210D4800F07EFE002208210B48C6
:10088C0000F079FE01221021084800F074FE0022CD
:10089C002021064800F06FFE00224021034800F0A2
:1008AC006AFE00BF00BF0837BD4680BD000801408E
:1008BC0080B582B000AF78607B68222B09D07B6852
:1008CC00222B77DC7B68192B27D07B681A2B48D01E
:1008DC0070E03A4B1B68012B67D10121384800F0BE
:1008EC0062FE00220421364800F045FE002202215F
:1008FC00334800F040FE00220821314800F03BFE56
:10090C0020212F4800F04FFE002210212C4800F02F
:10091C0032FE322000F0FAF947E0284B1B68012B1D
:10092C0045D10221264800F03EFE00220421244835
:10093C0000F021FE00220121214800F01CFE0022C3
:10094C0008211F4800F017FE10211D4800F02BFE57
:10095C00002220211A4800F00EFE322000F0D6F9B9
:10096C0025E0164B1B68012B23D10421144800F001
:10097C001AFE00220221124800F0FDFD0022012186
:10098C000F4800F0F8FD002210210D4800F0F3FD97
:10099C0008210B4800F007FE00222021084800F037
:1009AC00EAFD322000F0B2F903E000BF02E000BF24
:1009BC0000E000BF00BF0837BD4680BD78000020B6
:1009CC00000C014080B500AF00F0D4FA00F016F82E
:1009DC0000F09CF800F04EF8064801F029FA064B9E
:1009EC0001221A60322000F091F9FFF761FDFFF748
:1009FC00B3FCFAE77C0000206800002080B590B0C2
:100A0C0000AF07F1180328220021184601F0CCFD95
:100A1C003B1D00221A605A609A60DA601A61022348
:100A2C00BB610123BB621023FB6200237B6307F1D4
:100A3C001803184600F0D0FD0346002B01D000F03F
:100A4C00D1F80F237B600023BB600023FB600023E5
:100A5C003B6100237B613B1D0021184601F03CF8F3
:100A6C000346002B01D000F0BDF800BF4037BD4657
:100A7C0080BD000080B586B000AF07F108030022EE
:100A8C001A605A609A60DA603B4600221A605A601B
:100A9C001D4B4FF080421A601B4B41F63F725A605F
:100AAC00194B00229A60184B0922DA60164B00226F
:100ABC001A61154B00229A61134801F069F903463B
:100ACC00002B01D000F08EF84FF48053BB6007F17F
:100ADC00080319460C4801F0FFFA0346002B01D01D
:100AEC0000F080F800233B6000237B603B461946F6
:100AFC00054801F0CBFC0346002B01D000F072F846
:100B0C0000BF1837BD4680BD7C00002080B586B084
:100B1C0000AF07F1080300221A605A609A60DA608D
:100B2C00274B9B69264A43F004039361244B9B6932
:100B3C0003F004037B607B68214B9B69204A43F0E4
:100B4C00080393611E4B9B6903F008033B603B68F1
:100B5C0000227F211B4800F00EFD00223F211A4885
:100B6C0000F009FD7F23BB600123FB6000233B6188
:100B7C0002237B6107F108031946124800F06AFB57
:100B8C003F23BB600123FB6000233B6102237B619D
:100B9C0007F1080319460C4800F05CFB4FF4605356
:100BAC00BB600023FB6001233B6107F1080319467E
:100BBC00044800F04FFB00BF1837BD4680BD00BF96
:100BCC000010024000080140000C014080B582B0CA
:100BDC0000AF786000F0C2F8FFF7DAFA00BF083710
:100BEC00BD4680BD80B400AF72B600BFFEE700000A
:100BFC0080B485B000AF154B9B69144A43F00103D8
:100C0C009361124B9B6903F00103BB60BB680F4BF4
:100C1C00DB690E4A43F08053D3610C4BDB6903F064
:100C2C0080537B607B680A4B5B68FB60FB6823F03E
:100C3C00E063FB60FB6843F08063FB60044AFB6885
:100C4C00536000BF1437BD4680BC70470010024093
:100C5C000000014080B584B000AF78607B681B68F1
:100C6C00B3F1804F13D10C4BDB690B4A43F00103FA
:100C7C00D361094BDB6903F00103FB60FB680022C5
:100C8C0000211C2000F0AFFA1C2000F0C8FA00BFB5
:100C9C001037BD4680BD00BF0010024080B400AFCD
:100CAC00FEE780B400AFFEE780B400AFFEE780B48F
:100CBC0000AFFEE780B400AFFEE780B400AF00BF2A
:100CCC00BD4680BC704780B400AF00BFBD4680BC41
:100CDC00704780B400AF00BFBD4680BC704780B584
:100CEC0000AF00F08DF900BF80BD000080B500AFF3
:100CFC00024801F0E9F800BF80BD00BF7C00002075
:100D0C0080B400AF00BFBD4680BC704780B483B0D8
:100D1C0000AF7860054A7B681360054B00221A60AF
:100D2C0000BF0C37BD4680BC704700BF740000206C
:100D3C007800002080B483B000AF7860054A7B68EF
:100D4C001360054B00221A6000BF0C37BD4680BCF7
:100D5C00704700BF6C0000207000002080B400AF12
:100D6C00114B1B68002B0BDD0F4B1B68013B0E4A14
:100D7C0013600D4B1B68002B02DC0C4B01221A601C
:100D8C000B4B1B68002B0BDD094B1B68013B084A06
:100D9C001360074B1B68002B02DC064B01221A6008
:100DAC0000BFBD4680BC70476C0000207000002066
:100DBC00740000207800002080B582B000AF78600D
:100DCC007B68013B042B00F2A88001A252F823F0AF
:100DDC00F10D00082F0E00086D0E0008AB0E000878
:100DEC00E90E0008002201214E4800F0C4FB00224D
:100DFC0004214C4800F0BFFB00220221494800F0BE
:100E0C00BAFB00220821474800F0B5FB0022202144
:100E1C00444800F0B0FB00221021424800F0ABFB2C
:100E2C007BE0012201213F4800F0A5FB00220421B8
:100E3C003C4800F0A0FB002202213A4800F09BFB4A
:100E4C0000220821374800F096FB0122202135486A
:100E5C0000F091FB00221021324800F08CFB5CE08A
:100E6C00012201212F4800F086FB002204212D488D
:100E7C0000F081FB002202212A4800F07CFB0022BA
:100E8C000821284800F077FB00222021254800F09B
:100E9C0072FB01221021234800F06DFB3DE0002283
:100EAC000121204800F067FB012204211D4800F0BD
:100EBC0062FB002202211B4800F05DFB012208218D
:100ECC00184800F058FB00222021164800F053FB74
:100EDC0000221021134800F04EFB1EE000220121DD
:100EEC00104800F048FB002204210E4800F043FBA0
:100EFC00012202210B4800F03EFB01220821094887
:100F0C0000F039FB00222021064800F034FB0022BF
:100F1C001021044800F02FFB00BF00BF0837BD466E
:100F2C0080BD00BF000C0140FFF7EAFE0B480C49E6
:100F3C000C4A002302E0D458C4500433C4188C4229
:100F4C00F9D3094A094C002301E013600432A24290
:100F5C00FBD301F005FBFFF735FD704700000020C7
:100F6C00400000200826000840000020C800002097
:100F7C00FEE7000080B500AF084B1B68074A43F042
:100F8C0010031360032000F023F90F2000F008F881
:100F9C00FFF72EFE0023184680BD00BF0020024044
:100FAC0080B582B000AF7860124B1A68124B1B7878
:100FBC0019464FF47A73B3FBF1F3B2FBF3F3184613
:100FCC0000F03BF90346002B01D001230EE07B68B7
:100FDC000F2B0AD8002279684FF0FF3000F003F98C
:100FEC00064A7B681360002300E00123184608378B
:100FFC00BD4680BD340000203C000020380000209D
:10100C0080B400AF054B1B781A46054B1B68134484
:10101C00034A136000BFBD4680BC70473C000020F3
:10102C00C400002080B400AF024B1B681846BD46BC
:10103C0080BC7047C400002080B485B000AF7860DD
:10104C007B6803F00703FB600C4BDB68BB60BA6882
:10105C004FF6FF031340BB60FB681A02BB681343D7
:10106C0043F0BF6343F40033BB60044ABB68D360F6
:10107C0000BF1437BD4680BC704700BF00ED00E0D8
:10108C0080B400AF044BDB681B0A03F0070318465F
:10109C00BD4680BC704700BF00ED00E080B483B05B
:1010AC0000AF0346FB7197F90730002B0BDBFB7984
:1010BC0003F01F02064997F907305B09012000FA7B
:1010CC0002F241F8232000BF0C37BD4680BC7047AC
:1010DC0000E100E080B483B000AF03463960FB71DF
:1010EC0097F90730002B0ADB3B68DAB20C4997F909
:1010FC0007301201D2B20B4483F800230AE03B689C
:10110C00DAB20849FB7903F00F03043B1201D2B2A7
:10111C000B441A7600BF0C37BD4680BC704700BF2D
:10112C0000E100E000ED00E080B489B000AFF860B1
:10113C00B9607A60FB6803F00703FB61FB69C3F1DC
:10114C000703042B28BF0423BB61FB690433062B64
:10115C0002D9FB69033B00E000237B614FF0FF32B7
:10116C00BB6902FA03F3DA43BB681A407B699A4005
:10117C004FF0FF317B6901FA03F3D9437B680B40D5
:10118C00134318462437BD4680BC704780B582B0E7
:10119C0000AF78607B68013BB3F1807F01D3012302
:1011AC000FE00A4A7B68013B53600F214FF0FF3080
:1011BC00FFF790FF054B00229A60044B07221A6040
:1011CC00002318460837BD4680BD00BF10E000E084
:1011DC0080B582B000AF78607868FFF72DFF00BF54
:1011EC000837BD4680BD80B586B000AF0346B960F8
:1011FC007A60FB7300237B61FFF742FF78617A68AA
:10120C00B9687869FFF790FF024697F90F301146DD
:10121C001846FFF75FFF00BF1837BD4680BD80B58D
:10122C0082B000AF0346FB7197F907301846FFF701
:10123C0035FF00BF0837BD4680BD80B582B000AF1A
:10124C0078607868FFF7A2FF034618460837BD465A
:10125C0080BD000080B48BB000AF78603960002393
:10126C007B6200233B6248E101227B6A02FA03F3B2
:10127C00FB613B681B68FA691340BB61BA69FB6987
:10128C009A4240F037813B685B68A34A93425ED038
:10129C00A14A934275D8A14A934258D09F4A93428F
:1012AC006FD89F4A934252D09D4A934269D89D4A27
:1012BC0093424CD09B4A934263D89B4A934246D06C
:1012CC00994A93425DD8122B2AD8122B59D801A2D5
:1012DC0052F823F05B13000835130008471300087D
:1012EC00891300088F1300088F1300088F13000850
:1012FC008F1300088F1300088F1300088F1300083A
:10130C008F1300088F1300088F1300088F13000829
:10131C008F1300088F1300083D13000851130008A9
:10132C00824A934213D02CE03B68DB683B6229E095
:10133C003B68DB6804333B6224E03B68DB680833C2
:10134C003B621FE03B68DB680C333B621AE03B6896
:10135C009B68002B02D104233B6213E03B689B6823
:10136C00012B05D108233B627B68FA691A6109E0FD
:10137C0008233B627B68FA695A6103E000233B62F5
:10138C0000E000BFBB69FF2B01D87B6801E07B68E4
:10139C0004337B61BB69FF2B02D87B6A9B0002E0A4
:1013AC007B6A083B9B003B617B691A680F213B6998
:1013BC0001FA03F3DB431A40396A3B6901FA03F380
:1013CC001A437B691A603B685B6803F08053002BFF
:1013DC0000F09080564B9B69554A43F00103936192
:1013EC00534B9B6903F00103BB60BB68514A7B6A9A
:1013FC009B08023352F82330FB607B6A03F0030333
:10140C009B000F2202FA03F3DB43FA681340FB60E4
:10141C007B68494A93420DD07B68484A934207D077
:10142C007B68474A934201D1022304E0032302E084
:10143C00012300E000237A6A02F003029200934039
:10144C00FA681343FB603B497B6A9B080233FA68DA
:10145C0041F823203B685B6803F48013002B06D013
:10146C00384B9A683749BB6913438B6006E0354BA0
:10147C009A68BB69DB43334913408B603B685B68FC
:10148C0003F40013002B06D02E4BDA682D49BB69F0
:10149C001343CB6006E02B4BDA68BB69DB4329496D
:1014AC001340CB603B685B6803F40033002B06D021
:1014BC00244B5A682349BB6913434B6006E0214B0C
:1014CC005A68BB69DB431F4913404B603B685B6840
:1014DC0003F48033002B06D01A4B1A681949BB69E8
:1014EC0013430B6006E0174B1A68BB69DB431549C5
:1014FC0013400B607B6A01337B623B681A687B6A22
:10150C0022FA03F3002B7FF4AFAE00BF00BF2C37E1
:10151C00BD4680BC704700BF000032100000311087
:10152C000000221000002110000012100000111009
:10153C00001002400000014000080140000C014076
:10154C00001001400004014080B485B000AF786009
:10155C000B467B807B689A687B881340002B02D0FB
:10156C000123FB7301E00023FB73FB7B184614374C
:10157C00BD4680BC704780B483B000AF78600B462A
:10158C007B8013467B707B78002B03D07A887B683A
:10159C001A6103E07B881A047B681A6100BF0C3760
:1015AC00BD4680BC704780B485B000AF78600B46F8
:1015BC007B807B68DB68FB607A88FB6813401A04CD
:1015CC00FB68D9437B880B401A437B681A6100BFC8
:1015DC001437BD4680BC704780B586B000AF7860CC
:1015EC007B68002B01D101236CE27B681B6803F044
:1015FC000103002B00F08780924B5B6803F00C0317
:10160C00042B0CD08F4B5B6803F00C03082B12D10E
:10161C008C4B5B6803F48033B3F5803F0BD1894B63
:10162C001B6803F40033002B6CD07B685B68002BC9
:10163C0068D1012346E27B685B68B3F5803F06D135
:10164C00804B1B687F4A43F4803313602EE07B6829
:10165C005B68002B0CD17B4B1B687A4A23F48033DC
:10166C001360784B1B68774A23F4802313601DE0CA
:10167C007B685B68B3F5A02F0CD1724B1B68714A69
:10168C0043F4802313606F4B1B686E4A43F4803322
:10169C0013600BE06B4B1B686A4A23F480331360B6
:1016AC00684B1B68674A23F4802313607B685B6874
:1016BC00002B13D0FFF7B6FC386108E0FFF7B2FC43
:1016CC0002463B69D31A642B01D90323FAE15D4B23
:1016DC001B6803F40033002BF0D014E0FFF7A2FCDE
:1016EC00386108E0FFF79EFC02463B69D31A642B75
:1016FC0001D90323E6E1534B1B6803F40033002BA1
:10170C00F0D100E000BF7B681B6803F00203002BE4
:10171C0063D04C4B5B6803F00C03002B0BD0494B94
:10172C005B6803F00C03082B1CD1464B5B6803F47D
:10173C008033002B16D1434B1B6803F00203002BA4
:10174C0005D07B681B69012B01D00123BAE13D4B0D
:10175C001B6823F0F8027B685B69DB003949134393
:10176C000B603AE07B681B69002B20D0364B0122C2
:10177C001A60FFF757FC386108E0FFF753FC02468C
:10178C003B69D31A022B01D903239BE12D4B1B6818
:10179C0003F00203002BF0D02A4B1B6823F0F80255
:1017AC007B685B69DB00274913430B6015E0264B14
:1017BC0000221A60FFF736FC386108E0FFF732FCB4
:1017CC0002463B69D31A022B01D903237AE11D4B44
:1017DC001B6803F00203002BF0D17B681B6803F03D
:1017EC000803002B3AD07B689B69002B19D0174B50
:1017FC0001221A60FFF716FC386108E0FFF712FCB3
:10180C0002463B69D31A022B01D903235AE10D4B33
:10181C005B6A03F00203002BF0D0012000F09AFA6F
:10182C001CE00A4B00221A60FFF7FCFB38610FE04A
:10183C00FFF7F8FB02463B69D31A022B08D90323A6
:10184C0040E100BF001002400000424280044242CE
:10185C009E4B5B6A03F00203002BE9D17B681B688B
:10186C0003F00403002B00F0A6800023FB75974BBC
:10187C00DB6903F08053002B0DD1944BDB69934A49
:10188C0043F08053D361914BDB6903F08053BB6011
:10189C00BB680123FB758E4B1B6803F48073002B14
:1018AC0018D18B4B1B688A4A43F480731360FFF783
:1018BC00B9FB386108E0FFF7B5FB02463B69D31A68
:1018CC00642B01D90323FDE0814B1B6803F4807367
:1018DC00002BF0D07B68DB68012B06D17B4B1B6A9D
:1018EC007A4A43F0010313622DE07B68DB68002B1E
:1018FC000CD1764B1B6A754A23F001031362734BB0
:10190C001B6A724A23F0040313621CE07B68DB68D9
:10191C00052B0CD16D4B1B6A6C4A43F0040313620C
:10192C006A4B1B6A694A43F0010313620BE0674B75
:10193C001B6A664A23F001031362644B1B6A634AF9
:10194C0023F0040313627B68DB68002B15D0FFF7D0
:10195C0069FB38610AE0FFF765FB02463B69D31A65
:10196C0041F28832934201D90323ABE0574B1B6AF7
:10197C0003F00203002BEED014E0FFF753FB3861A9
:10198C000AE0FFF74FFB02463B69D31A41F288325B
:10199C00934201D9032395E04C4B1B6A03F00203DD
:1019AC00002BEED1FB7D012B05D1484BDB69474A5F
:1019BC0023F08053D3617B68DB69002B00F08180BE
:1019CC00424B5B6803F00C03082B61D07B68DB692E
:1019DC00022B46D13F4B00221A60FFF723FB3861E4
:1019EC0008E0FFF71FFB02463B69D31A022B01D913
:1019FC00032367E0354B1B6803F00073002BF0D119
:101A0C007B681B6AB3F5803F08D1304B5B6823F4CD
:101A1C0000327B689B682D4913434B602B4B5B68F2
:101A2C0023F474127B68196A7B685B6A0B43274941
:101A3C0013434B60274B01221A60FFF7F3FA38610E
:101A4C0008E0FFF7EFFA02463B69D31A022B01D9E3
:101A5C00032337E01D4B1B6803F00073002BF0D001
:101A6C002FE01C4B00221A60FFF7DCFA386108E00B
:101A7C00FFF7D8FA02463B69D31A022B01D903238C
:101A8C0020E0124B1B6803F00073002BF0D118E020
:101A9C007B68DB69012B01D1012313E00B4B5B68E5
:101AAC00FB60FB6803F480327B681B6A9A4206D1A8
:101ABC00FB6803F470127B685B6A9A4201D00123C5
:101ACC0000E0002318461837BD4680BD00100240C8
:101ADC00007000406000424280B584B000AF786076
:101AEC0039607B68002B01D10123D0E06A4B1B6865
:101AFC0003F007033A689A4210D9674B1B6823F02E
:101B0C00070265493B6813430B60634B1B6803F08A
:101B1C0007033A689A4201D00123B8E07B681B683E
:101B2C0003F00203002B20D07B681B6803F0040336
:101B3C00002B05D0594B5B68584A43F4E063536063
:101B4C007B681B6803F00803002B05D0534B5B68C4
:101B5C00524A43F460535360504B5B6823F0F002DD
:101B6C007B689B684D4913434B607B681B6803F093
:101B7C000103002B40D07B685B68012B07D1474BDE
:101B8C001B6803F40033002B15D101237FE07B6825
:101B9C005B68022B07D1414B1B6803F00073002BD1
:101BAC0009D1012373E03D4B1B6803F00203002BAA
:101BBC0001D101236BE0394B5B6823F003027B6896
:101BCC005B68364913434B60FFF72CFAF8600AE068
:101BDC00FFF728FA0246FB68D31A41F28832934287
:101BEC0001D9032353E02D4B5B6803F00C027B6897
:101BFC005B689B009A42EBD1274B1B6803F00703F1
:101C0C003A689A4210D2244B1B6823F007022249EF
:101C1C003B6813430B60204B1B6803F007033A68C7
:101C2C009A4201D0012332E07B681B6803F0040365
:101C3C00002B08D0194B5B6823F4E0627B68DB68EF
:101C4C00164913434B607B681B6803F00803002B99
:101C5C0009D0124B5B6823F460527B681B69DB0074
:101C6C000E4913434B6000F021F802460B4B5B68A6
:101C7C001B0903F00F030A49CB5C22FA03F3094A50
:101C8C001360094B1B681846FFF78AF900231846A6
:101C9C001037BD4680BD00BF00200240001002403E
:101CAC00DC250008340000203800002080B487B008
:101CBC0000AF0023FB600023BB6000237B6100238B
:101CCC007B6000233B611E4B5B68FB60FB6803F091
:101CDC000C03042B02D0082B03D027E0194B3B61DB
:101CEC0027E0FB689B0C03F00F03174AD35C7B6067
:101CFC00FB6803F48033002B10D0114B5B685B0C3A
:101D0C0003F00103114AD35CBB607B680D4A02FBF4
:101D1C0003F2BB68B2FBF3F37B6104E07B680C4A13
:101D2C0002FB03F37B617B693B6102E0054B3B618A
:101D3C0000BF3B6918461C37BD4680BC704700BFCE
:101D4C000010024000127A00EC250008FC25000867
:101D5C0000093D0080B485B000AF78600A4B1B6869
:101D6C000A4AA2FB03235B0A7A6802FB03F3FB60BB
:101D7C0000BFFB685A1EFA60002BF9D100BF00BFF0
:101D8C001437BD4680BC704734000020D34D621020
:101D9C0080B582B000AF78607B68002B01D1012345
:101DAC0041E07B6893F83D30DBB2002B06D17B68B9
:101DBC00002283F83C207868FEF74CFF7B680222F7
:101DCC0083F83D207B681A687B68043319461046FB
:101DDC0000F06EFA7B68012283F846207B680122B2
:101DEC0083F83E207B68012283F83F207B68012228
:101DFC0083F840207B68012283F841207B68012214
:101E0C0083F842207B68012283F843207B680122FF
:101E1C0083F844207B68012283F845207B680122EB
:101E2C0083F83D20002318460837BD4680BD0000CE
:101E3C0080B485B000AF78607B6893F83D30DBB23E
:101E4C00012B01D0012335E07B68022283F83D2071
:101E5C007B681B68DA687B681B6842F00102DA60F9
:101E6C007B681B68164A934209D07B681B68B3F1E8
:101E7C00804F04D07B681B68124A934211D17B6857
:101E8C001B689B6803F00703FB60FB68062B10D0F4
:101E9C007B681B681A687B681B6842F001021A6039
:101EAC0007E07B681B681A687B681B6842F00102BC
:101EBC001A60002318461437BD4680BC704700BF1B
:101ECC00002C01400004004080B582B000AF786067
:101EDC007B681B681B6903F00203022B22D17B6811
:101EEC001B68DB6803F00203022B1BD17B681B68A9
:101EFC006FF002021A617B6801221A777B681B68FB
:101F0C009B6903F00303002B03D0786800F0B4F94D
:101F1C0005E0786800F0A7F9786800F0B6F97B68FE
:101F2C0000221A777B681B681B6903F00403042BDF
:101F3C0022D17B681B68DB6803F00403042B1BD1E4
:101F4C007B681B686FF004021A617B6802221A77A7
:101F5C007B681B689B6903F44073002B03D0786883
:101F6C0000F08AF905E0786800F07DF9786800F0F7
:101F7C008CF97B6800221A777B681B681B6903F05D
:101F8C000803082B22D17B681B68DB6803F008036D
:101F9C00082B1BD17B681B686FF008021A617B68E9
:101FAC0004221A777B681B68DB6903F00303002BA0
:101FBC0003D0786800F060F905E0786800F053F918
:101FCC00786800F062F97B6800221A777B681B68DE
:101FDC001B6903F01003102B22D17B681B68DB6894
:101FEC0003F01003102B1BD17B681B686FF01002E1
:101FFC001A617B6808221A777B681B68DB6903F41B
:10200C004073002B03D0786800F036F905E078684F
:10201C0000F029F9786800F038F97B6800221A770B
:10202C007B681B681B6903F00103012B0ED17B68D5
:10203C001B68DB6803F00103012B07D17B681B686D
:10204C006FF001021A617868FEF7C0FD7B681B68AF
:10205C001B6903F08003802B0ED17B681B68DB6847
:10206C0003F08003802B07D17B681B686FF0800224
:10207C001A61786800F06BFA7B681B681B6903F0C7
:10208C004003402B0ED17B681B68DB6803F04003D8
:10209C00402B07D17B681B686FF040021A6178688F
:1020AC0000F0FCF87B681B681B6903F02003202BF5
:1020BC000ED17B681B68DB6803F02003202B07D153
:1020CC007B681B686FF020021A61786800F036FAA2
:1020DC0000BF0837BD4680BD80B584B000AF7860C6
:1020EC0039600023FB737B6893F83C30012B01D1E2
:1020FC000223B4E07B68012283F83C207B68022237
:10210C0083F83D207B681B689B68BB60BB6823F031
:10211C007703BB60BB6823F47F43BB607B681B68A1
:10212C00BA689A603B681B68B3F5005F3ED0B3F5A4
:10213C00005F00F28780B3F5805F00F08680B3F516
:10214C00805F7FD8702B1AD0702B7BD8602B50D02F
:10215C00602B77D8502B3CD0502B73D8402B58D0B9
:10216C00402B6FD8302B64D0302B6BD8202B60D009
:10217C00202B67D8002B5CD0102B5AD062E07B68E8
:10218C0018683B6899683B685A683B68DB6800F0E4
:10219C005EF97B681B689B68BB60BB6843F0770388
:1021AC00BB607B681B68BA689A604FE07B681868F4
:1021BC003B6899683B685A683B68DB6800F047F9F4
:1021CC007B681B689A687B681B6842F480429A6043
:1021DC003CE07B6818683B6859683B68DB681A46CA
:1021EC0000F0BEF87B681B685021184600F015F90A
:1021FC002CE07B6818683B6859683B68DB681A46BA
:10220C0000F0DCF87B681B686021184600F005F9CB
:10221C001CE07B6818683B6859683B68DB681A46A9
:10222C0000F09EF87B681B684021184600F0F5F81A
:10223C000CE07B681A683B681B681946104600F076
:10224C00ECF803E00123FB7300E000BF7B68012284
:10225C0083F83D207B68002283F83C20FB7B1846EA
:10226C001037BD4680BD80B483B000AF786000BF2E
:10227C000C37BD4680BC704780B483B000AF78602B
:10228C0000BF0C37BD4680BC704780B483B000AF34
:10229C00786000BF0C37BD4680BC704780B483B0FB
:1022AC0000AF786000BF0C37BD4680BC70470000A3
:1022BC0080B485B000AF786039607B681B68FB60C8
:1022CC007B68254A934207D07B68B3F1804F03D0DB
:1022DC007B68224A934208D1FB6823F07003FB60B1
:1022EC003B685B68FA681343FB607B681A4A93424D
:1022FC0007D07B68B3F1804F03D07B68174A9342B9
:10230C0008D1FB6823F44073FB603B68DB68FA6818
:10231C001343FB60FB6823F080023B685B6913434B
:10232C00FB607B68FA681A603B689A687B68DA62C3
:10233C003B681A687B689A627B68074A934203D1B0
:10234C003B681A697B681A637B6801225A6100BF7B
:10235C001437BD4680BC7047002C0140000400407F
:10236C0080B487B000AFF860B9607A60FB681B6A14
:10237C007B61FB681B6A23F00102FB681A62FB6835
:10238C009B693B613B6923F0F0033B617B681B015C
:10239C003A6913433B617B6923F00A037B617A69D9
:1023AC00BB6813437B61FB683A699A61FB687A6985
:1023BC001A6200BF1C37BD4680BC704780B487B022
:1023CC0000AFF860B9607A60FB681B6A7B61FB68E0
:1023DC001B6A23F01002FB681A62FB689B693B6165
:1023EC003B6923F470433B617B681B033A691343DD
:1023FC003B617B6923F0A0037B61BB681B017A699D
:10240C0013437B61FB683A699A61FB687A691A62CB
:10241C0000BF1C37BD4680BC704780B485B000AF90
:10242C00786039607B689B68FB60FB6823F0700305
:10243C00FB603A68FB68134343F00703FB607B685F
:10244C00FA689A6000BF1437BD4680BC704780B4F0
:10245C0087B000AFF860B9607A603B60FB689B683E
:10246C007B617B6923F47F437B613B681A027B6849
:10247C001A43BB6813437A6913437B61FB687A691F
:10248C009A6000BF1C37BD4680BC704780B485B0D5
:10249C0000AF786039607B6893F83C30012B01D138
:1024AC00022341E07B68012283F83C207B680222F6
:1024BC0083F83D207B681B685B68FB607B681B684E
:1024CC009B68BB60FB6823F07003FB603B681B6878
:1024DC00FA681343FB607B681B68FA685A607B6878
:1024EC001B68144A934209D07B681B68B3F1804F78
:1024FC0004D07B681B68104A93420CD1BB6823F054
:10250C008003BB603B685B68BA681343BB607B6845
:10251C001B68BA689A607B68012283F83D207B684F
:10252C00002283F83C20002318461437BD4680BC9B
:10253C00704700BF002C01400004004080B483B001
:10254C0000AF786000BF0C37BD4680BC704780B4CC
:10255C0083B000AF786000BF0C37BD4680BC7047BD
:10256C0070B500260C4D0D4C641BA410A64209D16D
:10257C0000F022F800260A4D0A4C641BA410A64257
:10258C0005D170BD55F8043B98470136EEE755F878
:10259C00043B98470136F2E70026000800260008A5
:1025AC00002600080426000803460244934200D18A
:1025BC00704703F8011BF9E7F8B500BFF8BC08BC7D
:1025CC009E467047F8B500BFF8BC08BC9E467047E5
:1025DC0000000000000000000102030406070809C7
:1025EC0002030405060708090A0B0C0D0E0F101048
:0425FC0001020000D8
:04260000310100089C
:042604000D010008BC
:1026080001000000010000000100000001000000BE
:1026180001000000010000000100000001000000AE
:10262800010000000100000001000000010000009E
:10263800F40100000024F400100000000100000074
:0400000508000F35AB
:00000001FF
